{
  "contractName": "SalesRegistration",
  "abi": [
    {
      "anonymous": false,
      "inputs": [
        {
          "indexed": false,
          "internalType": "address",
          "name": "from",
          "type": "address"
        },
        {
          "indexed": false,
          "internalType": "address",
          "name": "to",
          "type": "address"
        },
        {
          "indexed": false,
          "internalType": "uint256",
          "name": "timestamp",
          "type": "uint256"
        }
      ],
      "name": "NegotiationRegistered",
      "type": "event"
    },
    {
      "inputs": [
        {
          "internalType": "address",
          "name": "from",
          "type": "address"
        },
        {
          "internalType": "address",
          "name": "to",
          "type": "address"
        },
        {
          "internalType": "string",
          "name": "contractHash",
          "type": "string"
        }
      ],
      "name": "registerNegotiation",
      "outputs": [],
      "stateMutability": "nonpayable",
      "type": "function"
    },
    {
      "inputs": [
        {
          "internalType": "string",
          "name": "contractHash",
          "type": "string"
        }
      ],
      "name": "getContractDetails",
      "outputs": [
        {
          "components": [
            {
              "internalType": "address",
              "name": "From",
              "type": "address"
            },
            {
              "internalType": "address",
              "name": "To",
              "type": "address"
            },
            {
              "internalType": "uint256",
              "name": "Timestamp",
              "type": "uint256"
            }
          ],
          "internalType": "struct SalesRegistration.NegotiationData",
          "name": "",
          "type": "tuple"
        }
      ],
      "stateMutability": "view",
      "type": "function"
    }
  ],
  "bytecode": "0x608060405233600160006101000a81548173ffffffffffffffffffffffffffffffffffffffff021916908373ffffffffffffffffffffffffffffffffffffffff16021790555034801561005157600080fd5b50610959806100616000396000f3fe608060405234801561001057600080fd5b50600436106100365760003560e01c80632ff767d31461003b578063bfafff5b14610057575b600080fd5b610055600480360381019061005091906105fa565b610087565b005b610071600480360381019061006c9190610669565b610307565b60405161007e919061071c565b60405180910390f35b600160009054906101000a900473ffffffffffffffffffffffffffffffffffffffff1673ffffffffffffffffffffffffffffffffffffffff163373ffffffffffffffffffffffffffffffffffffffff1614610117576040517f08c379a000000000000000000000000000000000000000000000000000000000815260040161010e906107ba565b60405180910390fd5b600073ffffffffffffffffffffffffffffffffffffffff1660008260405161013f919061084b565b908152602001604051809103902060000160009054906101000a900473ffffffffffffffffffffffffffffffffffffffff1673ffffffffffffffffffffffffffffffffffffffff16146101c7576040517f08c379a00000000000000000000000000000000000000000000000000000000081526004016101be906108ae565b60405180910390fd5b60405180606001604052808473ffffffffffffffffffffffffffffffffffffffff1681526020018373ffffffffffffffffffffffffffffffffffffffff1681526020014281525060008260405161021e919061084b565b908152602001604051809103902060008201518160000160006101000a81548173ffffffffffffffffffffffffffffffffffffffff021916908373ffffffffffffffffffffffffffffffffffffffff16021790555060208201518160010160006101000a81548173ffffffffffffffffffffffffffffffffffffffff021916908373ffffffffffffffffffffffffffffffffffffffff160217905550604082015181600201559050507f2ba7f3eb41bf6a8e81bcde0285b34d50ab1200b4ecdede3b35ff6a19d9ba6bae8383426040516102fa939291906108ec565b60405180910390a1505050565b61030f6103f5565b60008260405161031f919061084b565b90815260200160405180910390206040518060600160405290816000820160009054906101000a900473ffffffffffffffffffffffffffffffffffffffff1673ffffffffffffffffffffffffffffffffffffffff1673ffffffffffffffffffffffffffffffffffffffff1681526020016001820160009054906101000a900473ffffffffffffffffffffffffffffffffffffffff1673ffffffffffffffffffffffffffffffffffffffff1673ffffffffffffffffffffffffffffffffffffffff1681526020016002820154815250509050919050565b6040518060600160405280600073ffffffffffffffffffffffffffffffffffffffff168152602001600073ffffffffffffffffffffffffffffffffffffffff168152602001600081525090565b6000604051905090565b600080fd5b600080fd5b600073ffffffffffffffffffffffffffffffffffffffff82169050919050565b600061048182610456565b9050919050565b61049181610476565b811461049c57600080fd5b50565b6000813590506104ae81610488565b92915050565b600080fd5b600080fd5b6000601f19601f8301169050919050565b7f4e487b7100000000000000000000000000000000000000000000000000000000600052604160045260246000fd5b610507826104be565b810181811067ffffffffffffffff82111715610526576105256104cf565b5b80604052505050565b6000610539610442565b905061054582826104fe565b919050565b600067ffffffffffffffff821115610565576105646104cf565b5b61056e826104be565b9050602081019050919050565b82818337600083830152505050565b600061059d6105988461054a565b61052f565b9050828152602081018484840111156105b9576105b86104b9565b5b6105c484828561057b565b509392505050565b600082601f8301126105e1576105e06104b4565b5b81356105f184826020860161058a565b91505092915050565b6000806000606084860312156106135761061261044c565b5b60006106218682870161049f565b93505060206106328682870161049f565b925050604084013567ffffffffffffffff81111561065357610652610451565b5b61065f868287016105cc565b9150509250925092565b60006020828403121561067f5761067e61044c565b5b600082013567ffffffffffffffff81111561069d5761069c610451565b5b6106a9848285016105cc565b91505092915050565b6106bb81610476565b82525050565b6000819050919050565b6106d4816106c1565b82525050565b6060820160008201516106f060008501826106b2565b50602082015161070360208501826106b2565b50604082015161071660408501826106cb565b50505050565b600060608201905061073160008301846106da565b92915050565b600082825260208201905092915050565b7f6f6e6c7920636f6e7472616374206f776e65722063616e20726565676973746560008201527f72206e65676f74696174696f6e73000000000000000000000000000000000000602082015250565b60006107a4602e83610737565b91506107af82610748565b604082019050919050565b600060208201905081810360008301526107d381610797565b9050919050565b600081519050919050565b600081905092915050565b60005b8381101561080e5780820151818401526020810190506107f3565b60008484015250505050565b6000610825826107da565b61082f81856107e5565b935061083f8185602086016107f0565b80840191505092915050565b6000610857828461081a565b915081905092915050565b7f6e65676f74696174696f6e20616c726561647920726567697374657265640000600082015250565b6000610898601e83610737565b91506108a382610862565b602082019050919050565b600060208201905081810360008301526108c78161088b565b9050919050565b6108d781610476565b82525050565b6108e6816106c1565b82525050565b600060608201905061090160008301866108ce565b61090e60208301856108ce565b61091b60408301846108dd565b94935050505056fea264697066735822122092c06db160d050f54a99d670c6b6506a8f6488464839d455385ded41b06fec3f64736f6c63430008110033",
  "immutableReferences": {},
  "source": "// SPDX-License-Identifier: MIT\npragma solidity >=0.4.22 <0.9.0;\n\ncontract SalesRegistration {\n  mapping(string => NegotiationData) registeredNegotiations;\n  address _owner = msg.sender;\n\n  struct NegotiationData {\n    address From;\n    address To;\n    uint Timestamp;\n  }\n\n  event NegotiationRegistered(address from, address to, uint timestamp);\n\n  function registerNegotiation(address from, address to, string memory contractHash) public {\n    require(msg.sender == _owner, \"only contract owner can reegister negotiations\");\n    require(registeredNegotiations[contractHash].From == address(0), \"negotiation already registered\");\n    \n    registeredNegotiations[contractHash] = NegotiationData(from, to, block.timestamp);\n    \n    emit NegotiationRegistered(from, to, block.timestamp);\n  }\n\n  function getContractDetails(string memory contractHash) public view returns (NegotiationData memory) {\n    return registeredNegotiations[contractHash];\n  }\n}\n",
  "sourcePath": "/home/cerutti/repos/demos-blockchain-intl-talks/smart-contracts/contracts/SalesRegistration.sol",
  "compiler": {
    "name": "solc",
    "version": "0.8.17+commit.8df45f5f.Emscripten.clang"
  },
  "schemaVersion": "3.4.11",
  "updatedAt": "2022-12-04T13:28:33.178Z",
  "devdoc": {
    "kind": "dev",
    "methods": {},
    "version": 1
  },
  "userdoc": {
    "kind": "user",
    "methods": {},
    "version": 1
  }
}